{
  "contractName": "Bet",
  "abi": [
    {
      "payable": true,
      "stateMutability": "payable",
      "type": "fallback"
    },
    {
      "anonymous": false,
      "inputs": [
        {
          "indexed": false,
          "name": "gameStatus",
          "type": "uint8"
        },
        {
          "indexed": false,
          "name": "originatorStatus",
          "type": "uint8"
        },
        {
          "indexed": false,
          "name": "originatorAddress",
          "type": "address"
        },
        {
          "indexed": false,
          "name": "originatorGuess",
          "type": "uint256"
        },
        {
          "indexed": false,
          "name": "takerAddress",
          "type": "address"
        },
        {
          "indexed": false,
          "name": "takerStatus",
          "type": "uint8"
        },
        {
          "indexed": false,
          "name": "takerGuess",
          "type": "uint256"
        },
        {
          "indexed": false,
          "name": "betAmount",
          "type": "uint256"
        },
        {
          "indexed": false,
          "name": "actualNumber",
          "type": "uint256"
        },
        {
          "indexed": false,
          "name": "pot",
          "type": "uint256"
        }
      ],
      "name": "BetStatus",
      "type": "event"
    },
    {
      "constant": false,
      "inputs": [
        {
          "name": "_guess",
          "type": "uint8"
        }
      ],
      "name": "createBet",
      "outputs": [],
      "payable": true,
      "stateMutability": "payable",
      "type": "function"
    },
    {
      "constant": false,
      "inputs": [
        {
          "name": "_guess",
          "type": "uint8"
        }
      ],
      "name": "takeBet",
      "outputs": [],
      "payable": true,
      "stateMutability": "payable",
      "type": "function"
    },
    {
      "constant": false,
      "inputs": [],
      "name": "payout",
      "outputs": [],
      "payable": true,
      "stateMutability": "payable",
      "type": "function"
    },
    {
      "constant": false,
      "inputs": [],
      "name": "getBetOutcome",
      "outputs": [],
      "payable": false,
      "stateMutability": "nonpayable",
      "type": "function"
    }
  ],
  "bytecode": "0x608060405234801561001057600080fd5b50611239806100206000396000f300608060405260043610610062576000357c0100000000000000000000000000000000000000000000000000000000900463ffffffff1680634a0ca9751461006457806363bd1d4a14610087578063c2bea15914610091578063dc2be4c2146100a8575b005b610085600480360381019080803560ff1690602001909291905050506100cb565b005b61008f610405565b005b34801561009d57600080fd5b506100a66108a1565b005b6100c9600480360381019080803560ff169060200190929190505050610a9f565b005b600060038111156100d857fe5b600060020160009054906101000a900460ff1660038111156100f657fe5b14801561012e57506000600581111561010b57fe5b600060030160010160149054906101000a900460ff16600581111561012c57fe5b145b801561016557506000600581111561014257fe5b600060060160010160149054906101000a900460ff16600581111561016357fe5b145b15156101d9576040517f08c379a000000000000000000000000000000000000000000000000000000000815260040180806020018281038252601b8152602001807f412042657420697320616c726561647920696e2070726f63657373000000000081525060200191505060405180910390fd5b60a06040519081016040528060008152602001600081526020016001600381111561020057fe5b81526020016080604051908101604052808460ff1681526020013373ffffffffffffffffffffffffffffffffffffffff1681526020016004600581111561024357fe5b815260200134815250815260200160806040519081016040528060008152602001600073ffffffffffffffffffffffffffffffffffffffff1681526020016000600581111561028e57fe5b8152602001600081525081525060008082015181600001556020820151816001015560408201518160020160006101000a81548160ff021916908360038111156102d457fe5b02179055506060820151816003016000820151816000015560208201518160010160006101000a81548173ffffffffffffffffffffffffffffffffffffffff021916908373ffffffffffffffffffffffffffffffffffffffff16021790555060408201518160010160146101000a81548160ff0219169083600581111561035757fe5b02179055506060820151816002015550506080820151816006016000820151816000015560208201518160010160006101000a81548173ffffffffffffffffffffffffffffffffffffffff021916908373ffffffffffffffffffffffffffffffffffffffff16021790555060408201518160010160146101000a81548160ff021916908360058111156103e657fe5b02179055506060820151816002015550509050506104026108a1565b50565b600080600080600061041633610cc1565b6002600381111561042357fe5b600060020160009054906101000a900460ff16600381111561044157fe5b14801561047957506000600581111561045657fe5b600060030160010160149054906101000a900460ff16600581111561047757fe5b115b80156104b057506004600581111561048d57fe5b600060030160010160149054906101000a900460ff1660058111156104ae57fe5b105b80156104e75750600060058111156104c457fe5b600060060160010160149054906101000a900460ff1660058111156104e557fe5b115b801561051e5750600460058111156104fb57fe5b600060060160010160149054906101000a900460ff16600581111561051c57fe5b105b1515610592576040517f08c379a000000000000000000000000000000000000000000000000000000000815260040180806020018281038252601c8152602001807f4e6f206f6e65206861732074616b656e2074686520426574207965740000000081525060200191505060405180910390fd5b60008001549450600060030160010160149054906101000a900460ff169350600060060160010160149054906101000a900460ff169250600060030160010160009054906101000a900473ffffffffffffffffffffffffffffffffffffffff169150600060060160010160009054906101000a900473ffffffffffffffffffffffffffffffffffffffff169050610627610e13565b6003600581111561063457fe5b84600581111561064057fe5b14801561066357506003600581111561065557fe5b83600581111561066157fe5b145b15610713578173ffffffffffffffffffffffffffffffffffffffff166108fc60028781151561068e57fe5b049081150290604051600060405180830381858888f193505050501580156106ba573d6000803e3d6000fd5b508073ffffffffffffffffffffffffffffffffffffffff166108fc6002878115156106e157fe5b049081150290604051600060405180830381858888f1935050505015801561070d573d6000803e3d6000fd5b50610892565b6001600581111561072057fe5b84600581111561072c57fe5b141561077e578173ffffffffffffffffffffffffffffffffffffffff166108fc869081150290604051600060405180830381858888f19350505050158015610778573d6000803e3d6000fd5b50610891565b6001600581111561078b57fe5b83600581111561079757fe5b14156107e9578073ffffffffffffffffffffffffffffffffffffffff166108fc869081150290604051600060405180830381858888f193505050501580156107e3573d6000803e3d6000fd5b50610890565b8173ffffffffffffffffffffffffffffffffffffffff166108fc60028781151561080f57fe5b049081150290604051600060405180830381858888f1935050505015801561083b573d6000803e3d6000fd5b508073ffffffffffffffffffffffffffffffffffffffff166108fc60028781151561086257fe5b049081150290604051600060405180830381858888f1935050505015801561088e573d6000803e3d6000fd5b505b5b5b61089a6108a1565b5050505050565b60008060008092506000915060009050600260038111156108be57fe5b600060020160009054906101000a900460ff1660038111156108dc57fe5b1415610901576000600101549250600060060160000154915060006003016000015490505b7fbfca0ac24299bdf5fa2a4b773d225c9818cc78178977ab6a11bde635772a1018600060020160009054906101000a900460ff16600060030160010160149054906101000a900460ff16600060030160010160009054906101000a900473ffffffffffffffffffffffffffffffffffffffff1684600060060160010160009054906101000a900473ffffffffffffffffffffffffffffffffffffffff16600060060160010160149054906101000a900460ff16886000600301600201548b6000800154604051808b60038111156109d457fe5b60ff1681526020018a60058111156109e857fe5b60ff1681526020018973ffffffffffffffffffffffffffffffffffffffff1673ffffffffffffffffffffffffffffffffffffffff1681526020018881526020018773ffffffffffffffffffffffffffffffffffffffff1673ffffffffffffffffffffffffffffffffffffffff168152602001866005811115610a6657fe5b60ff1681526020018581526020018481526020018381526020018281526020019a505050505050505050505060405180910390a1505050565b60016003811115610aac57fe5b600060020160009054906101000a900460ff166003811115610aca57fe5b148015610b02575060046005811115610adf57fe5b600060030160010160149054906101000a900460ff166005811115610b0057fe5b145b8015610b39575060006005811115610b1657fe5b600060060160010160149054906101000a900460ff166005811115610b3757fe5b145b8015610b4c575060006003016002015434145b1515610bc0576040517f08c379a000000000000000000000000000000000000000000000000000000000815260040180806020018281038252601e8152602001807f412042657420686173206e6f74206265656e207374617274656420796574000081525060200191505060405180910390fd5b6080604051908101604052808260ff1681526020013373ffffffffffffffffffffffffffffffffffffffff16815260200160046005811115610bfe57fe5b81526020013481525060006006016000820151816000015560208201518160010160006101000a81548173ffffffffffffffffffffffffffffffffffffffff021916908373ffffffffffffffffffffffffffffffffffffffff16021790555060408201518160010160146101000a81548160ff02191690836005811115610c8157fe5b021790555060608201518160020155905050600060060160020154600060030160020154016000800181905550610cb6610f49565b610cbe6108a1565b50565b600060030160010160009054906101000a900473ffffffffffffffffffffffffffffffffffffffff1673ffffffffffffffffffffffffffffffffffffffff168173ffffffffffffffffffffffffffffffffffffffff161480610d765750600060060160010160009054906101000a900473ffffffffffffffffffffffffffffffffffffffff1673ffffffffffffffffffffffffffffffffffffffff168173ffffffffffffffffffffffffffffffffffffffff16145b1515610e10576040517f08c379a00000000000000000000000000000000000000000000000000000000081526004018080602001828103825260378152602001807f4f6e6c792074686520426574206f726967696e61746f72206f722074616b657281526020017f2063616e2063616c6c20746869732066756e6374696f6e00000000000000000081525060400191505060405180910390fd5b50565b60008060020160006101000a81548160ff02191690836003811115610e3457fe5b021790555060008060010181905550600080600001819055506000806003016000018190555060008060030160010160006101000a81548173ffffffffffffffffffffffffffffffffffffffff021916908373ffffffffffffffffffffffffffffffffffffffff16021790555060008060030160010160146101000a81548160ff02191690836005811115610ec557fe5b02179055506000806006016000018190555060008060060160010160006101000a81548173ffffffffffffffffffffffffffffffffffffffff021916908373ffffffffffffffffffffffffffffffffffffffff16021790555060008060060160010160146101000a81548160ff02191690836005811115610f4257fe5b0217905550565b6001600a60014303406001900460ff16811515610f6257fe5b060160ff166000600101819055506002600060020160006101000a81548160ff02191690836003811115610f9257fe5b02179055506000600601600001546000600301600001541415611008576003600060030160010160146101000a81548160ff02191690836005811115610fd457fe5b02179055506003600060060160010160146101000a81548160ff02191690836005811115610ffe57fe5b021790555061120b565b6000600101546000600301600001541180156110305750600060010154600060060160000154115b1561108e576003600060030160010160146101000a81548160ff0219169083600581111561105a57fe5b02179055506003600060060160010160146101000a81548160ff0219169083600581111561108457fe5b021790555061120a565b6000600601600001546000600101540360006003016000015460006001015403101561110d576001600060030160010160146101000a81548160ff021916908360058111156110d957fe5b02179055506002600060060160010160146101000a81548160ff0219169083600581111561110357fe5b0217905550611209565b6000600301600001546000600101540360006006016000015460006001015403101561118c576002600060030160010160146101000a81548160ff0219169083600581111561115857fe5b02179055506001600060060160010160146101000a81548160ff0219169083600581111561118257fe5b0217905550611208565b6005600060030160010160146101000a81548160ff021916908360058111156111b157fe5b02179055506005600060060160010160146101000a81548160ff021916908360058111156111db57fe5b02179055506003600060020160006101000a81548160ff0219169083600381111561120257fe5b02179055505b5b5b5b5600a165627a7a72305820eadc01ea43cdd48dc8fa1ac7a449c3a268e3f4458dba3a2fb45e67bf1c11c49d0029",
  "source": "pragma solidity ^0.4.8;\ncontract Bet {\n\n    //status enums\n    enum BetStatusEnum {STATUS_UNKNOWN,STATUS_WINNER,STATUS_LOSE,STATUS_TIE,STATUS_PENDING, STATUS_ERROR}\n    enum GameStatusEnum {STATUS_NOT_STARTED, STATUS_STARTED, STATUS_COMPLETE, STATUS_ERROR }\n\n    //the 'better' structure\n    struct JediBet {\n        uint guess;\n        address addr;\n        BetStatusEnum status;\n        uint betAmount;\n    }\n\n    //the 'game' structure\n    struct Game {\n        uint pot;\n        uint outcome;\n        GameStatusEnum status;\n        JediBet originator;\n        JediBet taker;\n    }\n\n    //bet status event\n    event BetStatus (\n        GameStatusEnum gameStatus, \n        BetStatusEnum originatorStatus, \n        address originatorAddress, \n        uint originatorGuess,\n        address takerAddress, \n        BetStatusEnum takerStatus, \n        uint takerGuess, \n        uint betAmount, \n        uint actualNumber, \n        uint pot\n    );\n\n    //the game\n    Game game;\n\n    //fallback function\n    function() public payable {}\n\n    function resetGame() private {\n        //reset game\n        game.status = GameStatusEnum.STATUS_NOT_STARTED;\n        game.outcome = 0;\n        game.pot = 0;\n\n        game.originator.guess = 0;\n        game.originator.addr = 0;\n        game.originator.status = BetStatusEnum.STATUS_UNKNOWN;\n\n        game.taker.guess = 0; \n        game.taker.addr = 0;\n        game.taker.status = BetStatusEnum.STATUS_UNKNOWN;\n    }\n\n    function createBet(uint8 _guess) public payable {\n        require(\n            game.status == GameStatusEnum.STATUS_NOT_STARTED && \n            game.originator.status == BetStatusEnum.STATUS_UNKNOWN &&\n            game.taker.status == BetStatusEnum.STATUS_UNKNOWN,\n            \"A Bet is already in process\");    \n        game = Game(\n            0, 0, GameStatusEnum.STATUS_STARTED, \n            JediBet(_guess, msg.sender,  BetStatusEnum.STATUS_PENDING, msg.value), \n            JediBet(0, 0, BetStatusEnum.STATUS_UNKNOWN, 0));\n        getBetOutcome();\n    }\n\n    function takeBet(uint8 _guess) public payable { \n        require(\n            game.status == GameStatusEnum.STATUS_STARTED && \n            game.originator.status == BetStatusEnum.STATUS_PENDING && \n            game.taker.status == BetStatusEnum.STATUS_UNKNOWN && \n            msg.value == game.originator.betAmount,\n            \"A Bet has not been started yet\");\n        game.taker = JediBet(_guess, msg.sender, BetStatusEnum.STATUS_PENDING, msg.value);\n        game.pot = game.originator.betAmount + game.taker.betAmount;\n        generateBetOutcome();\n        getBetOutcome();\n    }\n\n    function payout() public payable {\n        checkPermissions(msg.sender);\n        require(\n            game.status == GameStatusEnum.STATUS_COMPLETE && \n            game.originator.status > BetStatusEnum.STATUS_UNKNOWN && \n            game.originator.status < BetStatusEnum.STATUS_PENDING &&\n            game.taker.status > BetStatusEnum.STATUS_UNKNOWN && \n            game.taker.status < BetStatusEnum.STATUS_PENDING,\n            \"No one has taken the Bet yet\");\n      \n        uint256 origPot = game.pot;\n        BetStatusEnum origStatus = game.originator.status; \n        BetStatusEnum takerStatus = game.taker.status;\n        address origAddress = game.originator.addr;\n        address takerAddress = game.taker.addr;\n      \n        resetGame(); // optimistic accounting\n        \n        if (origStatus == BetStatusEnum.STATUS_TIE && takerStatus == BetStatusEnum.STATUS_TIE) {\n            origAddress.transfer(origPot/2);\n            takerAddress.transfer(origPot/2);\n        } else {\n            if (origStatus == BetStatusEnum.STATUS_WINNER) {\n                origAddress.transfer(origPot);\n            } else if (takerStatus == BetStatusEnum.STATUS_WINNER) {\n                takerAddress.transfer(origPot);\n            } else {\n                origAddress.transfer(origPot/2);\n                takerAddress.transfer(origPot/2);\n            }\n        }\n        getBetOutcome();\n    }\n\n    function getBetOutcome() public {\n\n        //hide the bets and outcome\n        uint actualNumber = 0;\n        uint takerGuess = 0;\n        uint originatorGuess = 0;\n\n        if (game.status == GameStatusEnum.STATUS_COMPLETE) {\n            //allow the bets and outcome to be visible\n            actualNumber = game.outcome;\n            takerGuess = game.taker.guess;\n            originatorGuess = game.originator.guess;\n        }\n\n        emit BetStatus (\n            game.status, \n            game.originator.status, \n            game.originator.addr, \n            originatorGuess,\n            game.taker.addr, \n            game.taker.status, \n            takerGuess, \n            game.originator.betAmount, \n            actualNumber, \n            game.pot);\n    }\n\n    function checkPermissions(address sender) private view {\n        //only the originator or taker can call this function\n        require(\n            sender == game.originator.addr || sender == game.taker.addr,\n            \"Only the Bet originator or taker can call this function\");  \n    }\n\n    function generateBetOutcome() private {\n        //todo - not a great way to generate a random number but ok for now\n        game.outcome = uint8(blockhash(block.number-1))%10 + 1;\n        game.status = GameStatusEnum.STATUS_COMPLETE;\n\n        if (game.originator.guess == game.taker.guess) {\n            game.originator.status = BetStatusEnum.STATUS_TIE;\n            game.taker.status = BetStatusEnum.STATUS_TIE;\n        } else if (game.originator.guess > game.outcome && game.taker.guess > game.outcome) {\n            game.originator.status = BetStatusEnum.STATUS_TIE;\n            game.taker.status = BetStatusEnum.STATUS_TIE;\n        } else {\n            if ((game.outcome - game.originator.guess) < (game.outcome - game.taker.guess)) {\n                game.originator.status = BetStatusEnum.STATUS_WINNER;\n                game.taker.status = BetStatusEnum.STATUS_LOSE;\n            } else if ((game.outcome - game.taker.guess) < (game.outcome - game.originator.guess)) {\n                game.originator.status = BetStatusEnum.STATUS_LOSE;\n                game.taker.status = BetStatusEnum.STATUS_WINNER;\n            } else {\n                game.originator.status = BetStatusEnum.STATUS_ERROR;\n                game.taker.status = BetStatusEnum.STATUS_ERROR;\n                game.status = GameStatusEnum.STATUS_ERROR;\n            }\n        }\n    }\n}",
  "sourcePath": "/Users/markmathis/Projects/Ethereum/JediBetDapp/contracts/Bet.sol",
  "compiler": {
    "name": "solc",
    "version": "0.4.24+commit.e67f0147.Emscripten.clang"
  },
  "schemaVersion": "2.0.1",
  "updatedAt": "2018-07-22T14:37:15.083Z"
}