{
  "contractName": "Bet",
  "abi": [
    {
      "constant": true,
      "inputs": [],
      "name": "getTakerGuess",
      "outputs": [
        {
          "name": "",
          "type": "uint256"
        }
      ],
      "payable": false,
      "stateMutability": "view",
      "type": "function"
    },
    {
      "constant": true,
      "inputs": [],
      "name": "getPot",
      "outputs": [
        {
          "name": "",
          "type": "uint256"
        }
      ],
      "payable": false,
      "stateMutability": "view",
      "type": "function"
    },
    {
      "constant": false,
      "inputs": [],
      "name": "payout",
      "outputs": [],
      "payable": true,
      "stateMutability": "payable",
      "type": "function"
    },
    {
      "constant": false,
      "inputs": [
        {
          "name": "_guess",
          "type": "uint256"
        }
      ],
      "name": "createBet",
      "outputs": [],
      "payable": true,
      "stateMutability": "payable",
      "type": "function"
    },
    {
      "constant": false,
      "inputs": [],
      "name": "getBetOutcome",
      "outputs": [],
      "payable": false,
      "stateMutability": "nonpayable",
      "type": "function"
    },
    {
      "constant": false,
      "inputs": [
        {
          "name": "_guess",
          "type": "uint256"
        }
      ],
      "name": "takeBet",
      "outputs": [],
      "payable": true,
      "stateMutability": "payable",
      "type": "function"
    },
    {
      "constant": true,
      "inputs": [],
      "name": "getOriginatorGuess",
      "outputs": [
        {
          "name": "",
          "type": "uint256"
        }
      ],
      "payable": false,
      "stateMutability": "view",
      "type": "function"
    },
    {
      "constant": true,
      "inputs": [],
      "name": "getBetAmount",
      "outputs": [
        {
          "name": "",
          "type": "uint256"
        }
      ],
      "payable": false,
      "stateMutability": "view",
      "type": "function"
    },
    {
      "payable": true,
      "stateMutability": "payable",
      "type": "fallback"
    },
    {
      "anonymous": false,
      "inputs": [
        {
          "indexed": false,
          "name": "gameStatus",
          "type": "uint256"
        },
        {
          "indexed": false,
          "name": "originatorStatus",
          "type": "uint256"
        },
        {
          "indexed": false,
          "name": "originatorAddress",
          "type": "address"
        },
        {
          "indexed": false,
          "name": "originatorGuess",
          "type": "uint256"
        },
        {
          "indexed": false,
          "name": "takerAddress",
          "type": "address"
        },
        {
          "indexed": false,
          "name": "takerStatus",
          "type": "uint256"
        },
        {
          "indexed": false,
          "name": "takerGuess",
          "type": "uint256"
        },
        {
          "indexed": false,
          "name": "betAmount",
          "type": "uint256"
        },
        {
          "indexed": false,
          "name": "actualNumber",
          "type": "uint256"
        },
        {
          "indexed": false,
          "name": "pot",
          "type": "uint256"
        }
      ],
      "name": "BetStatus",
      "type": "event"
    }
  ],
  "bytecode": "0x6060604052341561000f57600080fd5b610ca68061001e6000396000f30060606040526004361061008e576000357c0100000000000000000000000000000000000000000000000000000000900463ffffffff1680630c4fb5fb14610090578063403c9fa8146100b957806363bd1d4a146100e2578063ac793a60146100ec578063c2bea15914610104578063c511a07414610119578063e787109814610131578063fde41e291461015a575b005b341561009b57600080fd5b6100a3610183565b6040518082815260200191505060405180910390f35b34156100c457600080fd5b6100cc61019c565b6040518082815260200191505060405180910390f35b6100ea6101c4565b005b61010260048080359060200190919050506104c6565b005b341561010f57600080fd5b6101176106e5565b005b61012f600480803590602001909190505061087e565b005b341561013c57600080fd5b610144610939565b6040518082815260200191505060405180910390f35b341561016557600080fd5b61016d610952565b6040518082815260200191505060405180910390f35b600061018e33610967565b600060060160000154905090565b60006101a733610967565b3073ffffffffffffffffffffffffffffffffffffffff1631905090565b6101cd33610967565b60036000600301600201541480156101ed57506003600060060160020154145b156102cf57600060030160010160009054906101000a900473ffffffffffffffffffffffffffffffffffffffff1673ffffffffffffffffffffffffffffffffffffffff166108fc60008001549081150290604051600060405180830381858888f19350505050151561025e57600080fd5b600060060160010160009054906101000a900473ffffffffffffffffffffffffffffffffffffffff1673ffffffffffffffffffffffffffffffffffffffff166108fc60008001549081150290604051600060405180830381858888f1935050505015156102ca57600080fd5b6104b4565b6001600060030160020154141561035457600060030160010160009054906101000a900473ffffffffffffffffffffffffffffffffffffffff1673ffffffffffffffffffffffffffffffffffffffff166108fc60026000800154029081150290604051600060405180830381858888f19350505050151561034f57600080fd5b6104b3565b600160006006016002015414156103d957600060060160010160009054906101000a900473ffffffffffffffffffffffffffffffffffffffff1673ffffffffffffffffffffffffffffffffffffffff166108fc60026000800154029081150290604051600060405180830381858888f1935050505015156103d457600080fd5b6104b2565b600060030160010160009054906101000a900473ffffffffffffffffffffffffffffffffffffffff1673ffffffffffffffffffffffffffffffffffffffff166108fc60008001549081150290604051600060405180830381858888f19350505050151561044557600080fd5b600060060160010160009054906101000a900473ffffffffffffffffffffffffffffffffffffffff1673ffffffffffffffffffffffffffffffffffffffff166108fc60008001549081150290604051600060405180830381858888f1935050505015156104b157600080fd5b5b5b5b6104bc610a2a565b6104c46106e5565b565b60a06040519081016040528034815260200160008152602001600281526020016060604051908101604052808481526020013373ffffffffffffffffffffffffffffffffffffffff1681526020016004815250815260200160606040519081016040528060008152602001600073ffffffffffffffffffffffffffffffffffffffff1681526020016000815250815250600080820151816000015560208201518160010155604082015181600201556060820151816003016000820151816000015560208201518160010160006101000a81548173ffffffffffffffffffffffffffffffffffffffff021916908373ffffffffffffffffffffffffffffffffffffffff1602179055506040820151816002015550506080820151816006016000820151816000015560208201518160010160006101000a81548173ffffffffffffffffffffffffffffffffffffffff021916908373ffffffffffffffffffffffffffffffffffffffff1602179055506040820151816002015550509050506060604051908101604052808281526020013373ffffffffffffffffffffffffffffffffffffffff168152602001600481525060006003016000820151816000015560208201518160010160006101000a81548173ffffffffffffffffffffffffffffffffffffffff021916908373ffffffffffffffffffffffffffffffffffffffff160217905550604082015181600201559050506106e26106e5565b50565b6000806000809250600091506000905060036000600201541415610722576000600101549250600060060160000154915060006003016000015490505b7f7bcea1db60c003ee7ae1b5f2a596e75c167c2326f73da25acf84e3f3bfd8c11a600060020154600060030160020154600060030160010160009054906101000a900473ffffffffffffffffffffffffffffffffffffffff1684600060060160010160009054906101000a900473ffffffffffffffffffffffffffffffffffffffff166000600601600201548860008001548b3073ffffffffffffffffffffffffffffffffffffffff1631604051808b81526020018a81526020018973ffffffffffffffffffffffffffffffffffffffff1673ffffffffffffffffffffffffffffffffffffffff1681526020018881526020018773ffffffffffffffffffffffffffffffffffffffff1673ffffffffffffffffffffffffffffffffffffffff1681526020018681526020018581526020018481526020018381526020018281526020019a505050505050505050505060405180910390a1505050565b60008001543414151561089057600080fd5b6060604051908101604052808281526020013373ffffffffffffffffffffffffffffffffffffffff168152602001600481525060006006016000820151816000015560208201518160010160006101000a81548173ffffffffffffffffffffffffffffffffffffffff021916908373ffffffffffffffffffffffffffffffffffffffff1602179055506040820151816002015590505061092e610b0c565b6109366106e5565b50565b600061094433610967565b600060030160000154905090565b600061095d33610967565b6000800154905090565b600060030160010160009054906101000a900473ffffffffffffffffffffffffffffffffffffffff1673ffffffffffffffffffffffffffffffffffffffff168173ffffffffffffffffffffffffffffffffffffffff161480610a1c5750600060060160010160009054906101000a900473ffffffffffffffffffffffffffffffffffffffff1673ffffffffffffffffffffffffffffffffffffffff168173ffffffffffffffffffffffffffffffffffffffff16145b1515610a2757600080fd5b50565b6000806002018190555060008060010181905550600080600001819055506000806003016000018190555060008060030160010160006101000a81548173ffffffffffffffffffffffffffffffffffffffff021916908373ffffffffffffffffffffffffffffffffffffffff160217905550600080600301600201819055506000806006016000018190555060008060060160010160006101000a81548173ffffffffffffffffffffffffffffffffffffffff021916908373ffffffffffffffffffffffffffffffffffffffff16021790555060008060060160020181905550565b6001600a600143034060019004811515610b2257fe5b060160006001018190555060036000600201819055506000600601600001546000600301600001541415610b715760036000600301600201819055506003600060060160020181905550610c78565b600060010154600060030160000154118015610b995750600060010154600060060160000154115b15610bbf5760036000600301600201819055506003600060060160020181905550610c77565b60006006016000015460006001015403600060030160000154600060010154031015610c065760016000600301600201819055506002600060060160020181905550610c76565b60006003016000015460006001015403600060060160000154600060010154031015610c4d5760026000600301600201819055506001600060060160020181905550610c75565b6004600060030160020181905550600460006006016002018190555060046000600201819055505b5b5b5b5600a165627a7a72305820b22262792ec56e2ee7c353469819a3f6f98e6a27a1c1e30fd413b72c2c216db80029",
  "source": "pragma solidity ^0.4.8;\n  contract Bet {\n\n    //jedi bet status\n    uint constant STATUS_UNKNOWN = 0;\n    uint constant STATUS_WINNER = 1;\n    uint constant STATUS_LOSE = 2;\n    uint constant STATUS_TIE = 3;\n    uint constant STATUS_PENDING = 4;\n\n    //game status\n    uint constant STATUS_NOT_STARTED = 0;\n    uint constant STATUS_STARTED = 2;\n    uint constant STATUS_COMPLETE = 3;\n\n    //general status\n    uint constant STATUS_ERROR = 4;\n\n    //the 'better' structure\n    struct JediBet {\n      uint guess;\n      address addr;\n      uint status;\n    }\n\n    //the 'game' structure\n    struct Game {\n      uint256 betAmount;\n      uint outcome;\n      uint status;\n      JediBet originator;\n      JediBet taker;\n    }\n\n    //bet status event\n    event BetStatus (\n      uint gameStatus, \n      uint originatorStatus, \n      address originatorAddress, \n      uint originatorGuess,\n      address takerAddress, \n      uint takerStatus, \n      uint takerGuess, \n      uint betAmount, \n      uint actualNumber, \n      uint pot);\n\n    //the game\n    Game game;\n\n    //fallback function\n    function() public payable {}\n\n    function resetGame() private {\n      //reset game\n      game.status = STATUS_NOT_STARTED;\n      game.outcome = 0;\n      game.betAmount = 0;\n\n      game.originator.guess = 0;\n      game.originator.addr = 0;\n      game.originator.status = 0;\n\n      game.taker.guess = 0;\n      game.taker.addr = 0;\n      game.taker.status = 0;\n    }\n\n    function createBet(uint _guess) public payable {\n      game = Game(msg.value, 0, STATUS_STARTED, JediBet(_guess, msg.sender, STATUS_PENDING), JediBet(0, 0, STATUS_NOT_STARTED));\n      game.originator = JediBet(_guess, msg.sender, STATUS_PENDING);\n      getBetOutcome();\n    }\n\n    function takeBet(uint _guess) public payable { \n      //requires the taker to make the same bet amount     \n      require(msg.value == game.betAmount);\n      game.taker = JediBet(_guess, msg.sender, STATUS_PENDING);\n      generateBetOutcome();\n      getBetOutcome();\n    }\n\n    function payout() public payable {\n\n      checkPermissions(msg.sender);\n     \n     if (game.originator.status == STATUS_TIE && game.taker.status == STATUS_TIE) {\n       game.originator.addr.transfer(game.betAmount);\n       game.taker.addr.transfer(game.betAmount);\n     } else {\n        if (game.originator.status == STATUS_WINNER) {\n          game.originator.addr.transfer(game.betAmount*2);\n        } else if (game.taker.status == STATUS_WINNER) {\n          game.taker.addr.transfer(game.betAmount*2);\n        } else {\n          game.originator.addr.transfer(game.betAmount);\n          game.taker.addr.transfer(game.betAmount);\n        }\n     }\n\n     resetGame();\n     getBetOutcome();\n   }\n\n   function getBetOutcome() public {\n\n        //hide the bets and outcome\n        uint actualNumber = 0;\n        uint takerGuess = 0;\n        uint originatorGuess = 0;\n\n        if (game.status == STATUS_COMPLETE) {\n            //allow the bets and outcome to be visible\n            actualNumber = game.outcome;\n            takerGuess = game.taker.guess;\n            originatorGuess = game.originator.guess;\n        }\n\n        BetStatus (\n          game.status, \n          game.originator.status, \n          game.originator.addr, \n          originatorGuess,\n          game.taker.addr, \n          game.taker.status, \n          takerGuess, \n          game.betAmount, \n          actualNumber, \n          this.balance);\n     }\n\n    function checkPermissions(address sender) view private {\n     //only the originator or taker can call this function\n     require(sender == game.originator.addr || sender == game.taker.addr);  \n    }\n\n    function getBetAmount() public view returns (uint) {\n      checkPermissions(msg.sender);\n      return game.betAmount;\n    }\n\n     function getOriginatorGuess() public view returns (uint) {\n       checkPermissions(msg.sender);\n       return game.originator.guess;\n     }\n\n     function getTakerGuess() public view returns (uint) {\n       checkPermissions(msg.sender);\n       return game.taker.guess;\n     }\n\n     function getPot() public view returns (uint256) {\n        checkPermissions(msg.sender);\n        return this.balance;\n     }\n\n    function generateBetOutcome() private {\n        //todo - not a great way to generate a random number but ok for now\n        game.outcome = uint(block.blockhash(block.number-1))%10 + 1;\n        game.status = STATUS_COMPLETE;\n\n        if (game.originator.guess == game.taker.guess) {\n          game.originator.status = STATUS_TIE;\n          game.taker.status = STATUS_TIE;\n        } else if (game.originator.guess > game.outcome && game.taker.guess > game.outcome) {\n          game.originator.status = STATUS_TIE;\n          game.taker.status = STATUS_TIE;\n        } else {\n           if ((game.outcome - game.originator.guess) < (game.outcome - game.taker.guess)) {\n             game.originator.status = STATUS_WINNER;\n             game.taker.status = STATUS_LOSE;\n           } else if ((game.outcome - game.taker.guess) < (game.outcome - game.originator.guess)) {\n             game.originator.status = STATUS_LOSE;\n             game.taker.status = STATUS_WINNER;\n           } else {\n             game.originator.status = STATUS_ERROR;\n             game.taker.status = STATUS_ERROR;\n             game.status = STATUS_ERROR;\n           }\n        }\n    }\n\n    //  function getBetOutcome() public view returns\n    //  (uint gameStatus, uint originatorStatus, address originatorAddress, uint originatorGuess,\n    //  address takerAddress, uint takerStatus, uint takerGuess, uint betAmount, uint actualNumber, uint pot) \n    //  {\n        \n    //     //hide the bets and outcome\n    //     actualNumber = 0;\n    //     takerGuess = 0;\n    //     originatorGuess = 0;\n\n    //     if (game.status == STATUS_COMPLETE) {\n    //         //allow the bets and outcome to be visible\n    //         actualNumber = game.outcome;\n    //         takerGuess = game.taker.guess;\n    //         originatorGuess = game.originator.guess;\n    //     }\n\n    //     gameStatus = game.status;\n    //     originatorStatus = game.originator.status;\n    //     originatorAddress = game.originator.addr;\n    //     takerStatus = game.taker.status;\n    //     takerAddress = game.taker.addr;\n    //     betAmount = game.betAmount;\n    //     pot = this.balance;\n    //  }\n  }",
  "sourcePath": "/Users/macuser/Projects/Solidity/react-dapp/contracts/Bet.sol",
  "compiler": {
    "name": "solc",
    "version": "0.4.18+commit.9cf6e910.Emscripten.clang"
  },
  "schemaVersion": "1.0.1",
  "updatedAt": "2018-02-19T00:54:51.082Z"
}